:020000040800F2
:1000000000000220F15A0008415B0008F944000892
:10001000FF440008054500080B45000800000000EB
:10002000000000000000000000000000A51C000807
:10003000415B0008000000003F1D00084F1D000844
:10004000415B0008415B0008415B0008415B000820
:10005000415B0008415B0008415B0008415B000810
:10006000415B0008415B0008415B0008415B000800
:10007000415B0008415B0008415B0008415B0008F0
:10008000415B0008415B0008415B0008E16100083A
:10009000D5610008415B0008E5610008415B00088C
:1000A000415B0008415B0008415B0008415B0008C0
:1000B000415B0008415B0008415B0008415B0008B0
:1000C000415B0008415B0008415B0008415B0008A0
:1000D000415B0008415B0008415B0008415B000890
:1000E000415B0008415B0008415B0008415B000880
:1000F000415B0008415B0008415B0008415B000870
:10010000415B0008415B0008415B0008415B00085F
:10011000415B0008415B0008415B0008415B00084F
:10012000415B0008415B0008415B0008415B00083F
:10013000415B00080000000000000000F5610008BD
:10014000E9610008415B0008F9610008415B0008B3
:10015000415B0008415B0008415B0008415B00080F
:10016000415B0008415B0008415B0008415B0008FF
:10017000415B0008415B0008415B00080000000093
:1001800000000000415B00080000000000000000CB
:10019000415B00080000000000000000415B000817
:1001A000000000000000000000000000415B0008AB
:1001B000415B0008415B0008415B0008415B0008AF
:1001C000415B00080348044B834202D0034B03B158
:1001D0001847704758090020580900200000000007
:1001E0000548064B1B1AD90F01EBA301491002D099
:1001F000034B03B1184770475809002058090020E5
:100200000000000010B5064C237843B9FFF7DAFF71
:10021000044B13B10448AFF300800123237010BDD9
:10022000600900200000000040F8000808B5054BF8
:100230001BB105490548AFF30080BDE80840FFF752
:10024000CFBF00BF000000006409002040F8000894
:10025000A3F5803A704700BF174B002B08BF134B24
:100260009D46FFF7F5FF00218B460F461348144AC1
:10027000121A0AF0C9FF0E4B002B00D098470D4B05
:10028000002B00D098470020002104000D000D48ED
:10029000002802D00C4804F0D3FF0BF09BF920009B
:1002A000290003F08DFC05F0CFF900BF0000080025
:1002B00000000000193B0008000002206009002037
:1002C000304D002041520008000000007047704788
:1002D000704770477047704770470000054B10B576
:1002E00004460360806918B1216A091A05F0E6F92D
:1002F000204610BDC0E40008014B024A1A60704756
:100300007C090020D001002010B50446FFF7E6FF6D
:100310002046282105F0D2F9204610BD2DE9F843EA
:1003200001F072F900F0F2F8804600F019FB074680
:1003300000F0E2FD064600F02FFE814600F0FEFED2
:100340002B4C05462368BFF35B8FDB070ED420469A
:1003500004F088FF50B1274800F078FB264A27496F
:10036000244804F06BFF204604F09EFF244A2148F5
:100370000023414600F0A8FB214A044600233946E9
:100380001C4800F0A1FB4FF47A720443002331466D
:10039000184800F099FBE4B2194A00230443494687
:1003A000144800F091FBE4B204434146284600F0B3
:1003B00041FFE4B204433946284600F03BFFE4B273
:1003C00004433146284600F035FFE4B22043C0B272
:1003D00060B90C4B0C4A1A6001F04CFC01F05CFC5B
:1003E00002460B46034800F00FFBF7E7FEE700BFAD
:1003F0008009002084090020C8010020DD020008D7
:10040000A08601007C090020CC010020007D7047FF
:1004100000697047D0E902321A43036923EA0203F4
:1004200003617047036982681340C2681340036127
:100430007047002303617047704710B518210446C8
:1004400005F03CF9204610BD002337B5037505467D
:1004500000F0B6FA234C037820688DF80430036866
:1004600001A91B68984700F0B3FA037820688DF85B
:100470000430036801A95B68984700F0ADFA03787F
:1004800020688DF80430036801A99B68984700F044
:10049000A7FA037820688DF80430036801A9DB68A7
:1004A000984700F091FA037820688DF804300368CB
:1004B00001A91B69984700F097FA037820688DF826
:1004C0000430036801A95B69984700F095FA037846
:1004D00020688DF80430036801A99B699847287D3E
:1004E00003B030BD7C09002010B5022383800023B7
:1004F000C0E9023303610375034B03600446FFF751
:10050000FBFE204610BD00BF48D4000810B50B4CC0
:100510002368BFF35B8FDB070ED4204604F0A2FEF6
:1005200050B10748FFF7E0FF064A0749044804F0C6
:1005300085FE204604F0B8FE014810BDAC0900203D
:10054000B0090020C8010020390400080B7823B14D
:10055000024B034A1A6000230B7070477C0900208D
:10056000E40100200B7823B1024B034A1A600023F8
:100570000B7070477C090020CC0100200B7823B160
:10058000024B034A1A6000230B7070477C0900205D
:10059000E00100200B7823B1024B034A1A600023CC
:1005A0000B7070477C090020E40100200B7823B118
:1005B000024B034A1A6000230B7070477C0900202D
:1005C000DC0100200B7823B1024B034A1A600023A0
:1005D0000B7070477C090020D80100200B7823B1F4
:1005E000024B034A1A6000230B7070477C090020FD
:1005F000D4010020704710B52021044605F05EF8B4
:10060000204610BD084601F0C5B901F035BA01F029
:10061000FBB901F0C1B901F085B900002DE9F8433B
:10062000AE4B1A68AE4B9A422DED028B044640F059
:10063000838101F062FA18B9236943F400632361EE
:10064000A84E3368BFF35B8F13F0010FA64D0AD19C
:10065000304604F007FE30B101F01EFBC5E9000191
:10066000304604F021FE237F2BB90123237701F0CC
:1006700013FBC5E9000101F00FFBD5E90032C01AF8
:1006800061EB0201994A0023824273EB010108D217
:10069000226942F400722261022222756377207D72
:1006A00041E0627F042AFAD8DFE812F00500080072
:1006B0005C008100CE0023610123EFE7A06903689D
:1006C000DB689847012846D101F0E6FA884FDFF849
:1006D0004092884E0546884601F0DEFA15EB090285
:1006E00048F100039042994104D2013F02D033788F
:1006F000002BF1D1804D00233370D5E900231A433C
:1007000003D101F0C9FAC5E9000101F0C5FAD5E944
:100710000023801A61EB0301784B83424FF0000302
:100720008B4104D30020BDEC028BBDE8F88301F0BF
:10073000B3FAC5E90001A069012333700368DB68DF
:100740009847022208B96277A9E72369227543F422
:1007500080632361A3E7236943F480632361022359
:1007600023759CE7A06903681B689847A26907EE98
:10077000900A92ED017AF4EEC77AF1EE10FA48BFD2
:10078000236992ED027A48BF43F00203F4EEC77A80
:100790004ABF236101230023F1EE10FA03DD236930
:1007A00043F00403DAE7002BD9D0032376E7A069EE
:1007B000036800211B699847054600283CD0504E2D
:1007C000D6E900231A4303D101F066FAC6E9000115
:1007D00001F062FAD6E90023801A61EB0301494B6C
:1007E0000027834277EB01019CD201F055FAC6E95C
:1007F0000001A0699FED448A03685B68984707EE93
:10080000900AF4EEC87AF1EE10FAC8BF2369A06925
:10081000C4BF43F02003236103689B68C8BF3D4603
:10082000984707EE900AF4EEC87AF1EE10FA07DD69
:10083000236943F0400391E7236943F480738DE714
:10084000002D8CD0042329E7A06903684FF07E5166
:100850001B699847054600285CD02C4ED6E900233A
:100860001A4303D101F018FAC6E9000101F014FAA5
:10087000D6E90023801A61EB0301224B0027834253
:1008800077EB0101BFF44EAF01F006FAC6E90001B3
:10089000A06903685B68984707EE900AB3EE0E8A7A
:1008A000F4EEC87AF1EE10FA48BF2369A06944BF9C
:1008B00043F00803236103689B6848BF3D4698479F
:1008C00007EE900AF4EEC87AF1EE10FA26D5236905
:1008D00043F0100323610223237523E07C090020E9
:1008E000CC010020E0090020E8090020404B4C002A
:1008F00001E1F505E8010020D80900209F860100EC
:10090000D00900203F420F00CDCCCC3DC8090020CB
:10091000A0860100236943F08003DBE7002DDAD0D5
:1009200000236377236901251BB900F069F805707E
:10093000B5E600F05DF8FAE700230377AFE600BF05
:1009400010B50A22054C82800022C0E90222026111
:10095000027504608161828310BD00BF64D5000808
:1009600010B50C4C2368BFF35B8FDB070FD4204618
:1009700004F078FC58B108490848FFF7E1FF084A3D
:100980000849064804F05AFC204604F08DFC034850
:1009900010BD00BFF0090020EC010020F409002088
:1009A000C8010020F5050008004870471C0A002017
:1009B00000487047000200200048704700020020F5
:1009C000004870471A0A002000487047190A0020A2
:1009D00000487047180A002000487047170A002096
:1009E00000487047160A002000487047150A00208A
:1009F00000487047150A002000487047140A00207C
:100A000000487047140A0020F7B5D0E906460025D3
:100A1000A64202D1284603B0F0BD01F03DF90246DE
:100A20000B46D4E90401E7680197A768101A63EB45
:100A30000101B8420198814106D320680168C4E9E8
:100A400004234968884705461834E1E72DE9F8434F
:100A5000012383800023C0E90233C0E90633036128
:100A600003750362174A02602023044643624FF471
:100A7000407004F00DFED4E906C905468046E646FE
:100A8000F14508F1180810D1BCF1000F05D0216A1A
:100A90006046A1EB0C0104F011FEC4E9065505F512
:100AA000407525622046BDE8F88377460FCFA8F150
:100AB00018060FC697E803000EF1180E86E803002B
:100AC000DEE700BFC0E400082DE9F74F0646CDE998
:100AD00000230C4629B94FF00108404603B0BDE899
:100AE000F08F0B6808461B68984780460028F2D1B3
:100AF000D6E906754B4BA5EB07094FEAE9015943C7
:100B00004FEAA10C3846BCF1000F034618DC2A1A44
:100B1000302A32D0482A2CD0182A32D0736A8B421D
:100B2000D9D9336AAB4230D0009BAB60019BEB60FC
:100B300000220023C5E904232C601835F561CCE7B9
:100B40000268A24203D08269A24203D118339D42B7
:100B5000C1D1E3E7026BA24201D13033F7E79A6CCF
:100B6000A24203F1600001D14833F0E70CF1FF3CF1
:100B7000C9E70268A242EAD018331A68A242E6D056
:100B800018331A68A242C9D1E1E7274B994202D132
:100B9000264807F01FFF01290A4638BF012289189D
:100BA00002D28B4228BF0B46182202FB03FA5046A2
:100BB00004F06EFD002140F8094000EB0903834674
:100BC0000020009A9A60C3E90401019ADA60D946CC
:100BD0003C46AC4209F1180916D1154BE41BE40858
:100BE0005C4324F06044182304FB03330BEB030441
:100BF00027B1316A3846C91B04F060FD0BEB0A03CC
:100C0000C6E906B4336268E7A646BEE80F00A9F15C
:100C1000180CACE80F009EE8030018348CE80300C1
:100C2000D7E700BFABAAAAAA5555550584D5000839
:100C3000ABAAAA0A704710B51C21044604F03EFD79
:100C4000204610BD084600F0EDBD00F0DDBE00F00E
:100C5000A3BE00F02FBE000070B52DED068B08EE90
:100C6000103A9DF82C309DED0AAA05EE101A05EEFB
:100C7000902A012B75EE658A66D0022B50D0002B8E
:100C80006BD09FED507AF7EE006AF0EE477AB0EE47
:100C9000476A4D4C9FED4D3AD4ED004A4C4D78EEED
:100CA000E44A95ED009A84EE834AF0EE493AE8EE84
:100CB000833A78EEA34A74EE844AF4EECA4AF1EE1F
:100CC00010FA06DCF4EEC84AF1EE10FA58BFB0EEA6
:100CD000639A69EE277A3F4EE8EE867AB4EEE55ADB
:100CE000E7EE047A9FED3C7AC7EEA69AD6ED007A3D
:100CF00079EEE77AF1EE10FAF4EEC77A36DDF1EE2E
:100D000010FA36DC012B4DD0022B53D08BBB03697C
:100D100043F002030361FFF74FFE0223037028E054
:100D20009FED2E7AF0EEE87AF4EEC77AF1EE10FA43
:100D30009FED2B7ADFED2B7AF7EE006AB3EE0E6AA9
:100D4000A7D8DFED208AA4E7DFED276A9FED277A99
:100D5000DFED277A9FED276A9BE7DFED277A9FED8E
:100D6000276AF3EE046AB7EE087A92E7F1EE10FA1A
:100D7000C8DCF4EEC89AF1EE10FA58BFB0EE698AFA
:100D8000B4EECA8AF1EE10FAD4BF18EE100A1AEEC9
:100D9000100AC6ED009A85ED009AC4ED008ABDECFC
:100DA000068B70BD036943F004030361FFF704FE83
:100DB0000423B3E7036943F008030361FFF7FCFD75
:100DC0000823ABE700000000440A00206F12833ABA
:100DD000480A0020400A00200AD7233CCDCCCC3D55
:100DE000FED4783E00C066446666CE4035EF383E9D
:100DF000B81EFF419A999940000048430000A04264
:100E0000F0B52E4B2DED028B1A682D4B9A4285B012
:100E100004464ED1FFF7C8FD0568A06903681B684A
:100E200098470646A06903685B68984708EE100A71
:100E3000A06903689B68984707EE900A78EE277AC6
:100E40000027204B009317EE902A29460023019794
:100E50002046CDED037AFFF7FFFE012301931A4BE5
:100E6000039A0093014600232046FFF7F5FE022572
:100E7000164B019501460093324600232046FFF7AA
:100E8000EBFE9FED137A06EE900AC6EE877AA06914
:100E90000368DB689FED0F7A67EE877A9FED0E7A25
:100EA000C7EE877A17EE901A9847B84218BF3D46AA
:100EB0002575207D05B0BDEC028BF0BD7C090020BE
:100EC000D801002000004844000020426666C64069
:100ED00085EBF13F00F07F45333353400B22828096
:100EE0000022C0E9022202610275024A02608161A9
:100EF000704700BF00E5000810B50C4C2368BFF335
:100F00005B8FDB070FD4204604F0ACF958B10849D9
:100F10000848FFF7E3FF084A0849064804F08EF93D
:100F2000204604F0C1F9034810BD00BF200A00208C
:100F300004020020240A0020C8010020350C00080B
:100F4000704710B51C21044604F0B8FB204610BDC4
:100F500000F0C0BD10B50446FFF72AFD0378012B51
:100F600003D102232375022010BDA06903681B680A
:100F70009847022323750028F3D0F4E70D228280DE
:100F80000022C0E9022202610275024A0260816108
:100F9000704700BF34E5000810B50C4C2368BFF360
:100FA0005B8FDB070FD4204604F05CF958B1084989
:100FB0000848FFF7E3FF084A0849064804F03EF9ED
:100FC000204604F071F9034810BD00BF4C0A002010
:100FD00008020020500A0020C8010020410F00082C
:100FE000002070472DE9F84FD0E90767DFF88480CB
:100FF000DFF88490DFF884A00446B74202D10020D5
:10100000BDE8F88F306803689B689847D8F80030CF
:101010004B4505460CD133689B681D4204D0A0693E
:1010200003681B680121984700235DB90436E4E793
:10103000534502D13368DB68EFE7A06903680221FA
:101040001B68F0E7EA0713D53268A069928852015D
:1010500003F1010B02F4787203F01F0343EA02016B
:1010600002685FFA8BFB526841F4005190475B467F
:101070006D08DAE77C090020D80100200C0200206E
:101080001FB5102349BA00200393ADF800100223C6
:101090006946CDF80200ADF806008DF8083000F082
:1010A0008BF905B05DF804FB084600F067BD000051
:1010B000054B10B504460360C06918B1616A091A8E
:1010C00004F0FCFA204610BD90E5000810B5044677
:1010D000FFF7EEFF20462C2104F0F0FA204610BD69
:1010E0000E2370B583800023C0E90613C0E90233E4
:1010F000C0E90833104A036103752023026083624C
:101100000446802004F0C4FA0546D4E907012A1FEA
:10111000034699420AD118B1616A091A04F0CEFA5D
:10112000C4E9075580356562204670BD53F8046BED
:1011300042F8046FEDE700BF90E5000810B5144CCD
:101140002368BFF35B8FDA0709D4204604F08AF8DE
:1011500028B1104B104A1A60204604F0A5F80F4C35
:101160002368BFF35B8FDB070FD4204604F07AF8C7
:1011700058B108490A48FFF7B3FF0A4A0A49084824
:1011800004F05CF8204604F08FF8054810BD00BF5D
:101190009C0A0020A00A002080E500086C0A0020BC
:1011A000700A0020C8010020B11000082DE9F047A6
:1011B000D0E900856FF06043A5EB0809B3EBA90FF8
:1011C00007468A464FEAA90202D1194807F002FCF5
:1011D000012A114638BF0121521802D2934228BF7A
:1011E00013469E00304604F053FADAF8003040F817
:1011F00009300446011F4246AA4202F1040311D1FC
:10120000A3EB0803E518B8F1000F05D0B968404614
:10121000A1EB080104F052FAC7E900453444BC6070
:10122000BDE8F087126841F8042F1A46E4E700BFD2
:1012300084D50008F7B5054601910C4619B9012778
:10124000384603B0F0BD0B6808461B689847074650
:101250000028F4D1D5E90712561A4FEAA60C361128
:10126000002E0B4610DC511A082929D00C2923D056
:10127000042929D0AB6A6345E1D96B6A9A4227D029
:1012800042F8044B2A62DBE70868844203D04868CE
:10129000844203D104339A42D1D1EBE789688C426E
:1012A00001D10833F7E7D868844203F1100101D176
:1012B0000C33F0E7013ED3E719688C42EBD00433DE
:1012C00019688C42E7D0043319688C42D2D1E2E726
:1012D00001A905F11C00FFF769FFB1E770477047EE
:1012E00070470B6803604B6843608B68836070478E
:1012F00038B504210446406807F081F9054698B1E5
:10130000E3690360E16807F01FFB2169284607F0E5
:101310001EFB2846054907F01DFB606804492A4664
:10132000BDE8384007F02EBA38BD00BFE112000812
:101330006113000838B50568044625B90649074811
:10134000CF2203F02FFC6B69284698472368A860DA
:101350009B68002BF2D038BDCED5000897DF00087F
:101360000368184710B4D0E901320168541001EB4A
:101370006200D20748BF0A595DF8044B48BFD358F2
:101380001847002303600B681BB11A680360013221
:101390001A607047C3680BB19B681847704710B557
:1013A00010220446002109F02FFF08232373002395
:1013B0006360A360204610BD73B5194C06460D4608
:1013C0002368BFF35B8FDB0709D4204603F04AFF95
:1013D00028B11448FFF7E3FF204603F065FF114CE6
:1013E000EB682A7A23602946201D22730AF006FB47
:1013F00026B1012E0DD0002002B070BDE36800932D
:1014000094E80E00084802F09DFD003818BF012046
:10141000F2E7E368009394E80E000448F3E700BFA6
:10142000A40A0020A80A0020000D0020F80B0020CC
:1014300010B50446006848B10368013B03602BB94E
:10144000836998472168486807F014F9204610BD61
:1014500008B5FFF7EDFF08BD00F58050037843B9EC
:1014600043888088834228BF00F58070C01A80B20C
:101470007047002070472DE9F047144605460F4697
:10148000FFF7EAFFA04232D305F5805E08BF0123D3
:10149000BEF8026008BF8EF8003006EB0408B8F111
:1014A000FF0F4FEA061307DC1D440026B3B29C422F
:1014B00032D8AEF802801AE0C6F5807C1FFA8CFCA8
:1014C00005EB030A4FF000081FFA88F39C4510D87B
:1014D0004FF00009A4EB0C0A1FFA89F3534509F1F8
:1014E000010910DBA4F580742644AEF80260BDE863
:1014F000F08707EB08130FCB0AEB081989E80F00F8
:1015000008F10108E0E705EB0318634407EB031358
:101510000FCB88E80F00DFE707EB06130FCB05EBD7
:10152000061C8CE80F000136C0E7000010B50F4C18
:101530002368BFF35B8FDB0709D4204603F092FEDC
:1015400028B10B48FFF72BFF204603F0ADFE002229
:101550000749084802F016FD0128024605D1BDE8FA
:10156000104003490448FFF786BF10BDCC0A002095
:10157000D00A0020000D0020080E002010B50F4CEE
:101580002368BFF35B8FDB0709D4204603F06AFEB4
:1015900028B10B48FFF703FF204603F085FE002229
:1015A0000749084802F0EEFC0128024605D1BDE8D3
:1015B000104003490448FFF75EBF10BDB80A002081
:1015C000BC0A0020F80B0020101E002070B50D464C
:1015D000044620212846164607F011F8206068B11D
:1015E0000023C0E902334FF0FF330361044B436132
:1015F000044B4560C0E9063601230360204670BDF8
:10160000F1120008DF12000830B587B02D4B2E4DC7
:10161000059302A92D4B2E480393002402950494B0
:1016200004F0AEF902A8FFF7B5FE2A4802F0CEFC9E
:10163000294802F0CBFC2946284A294D01A8FFF78A
:10164000C5FF019B0595CDE9034402941BB11A68BF
:10165000029301321A600024224602A91D48CDE9F6
:10166000034402F0C3FC02A8FFF794FE01A8FFF7B1
:10167000DFFE1C4A144901A8FFF7A8FF019B05954E
:10168000CDE9034402941BB11A68029301321A6037
:101690000024224602A91048CDE9034402F0A6FC2A
:1016A00002A8FFF777FE01A8FFF7C2FE0E4B5C8091
:1016B0009C801C7003F5805301205C819C811C720E
:1016C00007B030BDB0E500089C0B00200F85000876
:1016D000E00A0020000D0020F80B00202D15000866
:1016E000BCE500087D150008081E002073B52D4DCF
:1016F000002428191034FFF752FEB4F5805FF8D1AA
:10170000294B002405F580551C705C809C800835B1
:1017100028191034FFF743FEB4F5805FF8D1234B4E
:10172000234800251D725D819D811922214B1821BE
:1017300002F0DCFB204A21491D4803F07FFD1D4BD0
:101740001F481622152102F0D1FB1B4A1B491C48D9
:1017500003F074FD2A464FF4D0611A4806F0BEFE2D
:10176000154A1949174803F069FD184A184B1360C8
:101770001646294602F14000156104F08BF806F187
:10178000540004F027F82246304600952B461821D5
:1017900004F0EAF8084A0F49304602B0BDE870404C
:1017A00003F04CBD080E0020081E0020082E00206B
:1017B000000D002020A10700C80100205D400008A6
:1017C000F80B00209C0B0020FB840008E00A00209E
:1017D00030E80008A15A000810B5064B044640F84E
:1017E000043B04F0E3FB04F1240004F031F820464C
:1017F00010BD00BFE8E5000810B50446FFF7ECFF98
:101800002046482103F05AFF204610BD243004F042
:1018100005B8243003F0E6BF10B5044602F060FCC2
:10182000204610BD10B52DED028B08EE100A1B4CA2
:101830002368BFF35B8FDB0716D4204603F012FD4D
:1018400090B11748174B40F8243B03F0C3FF144BEB
:101850000421581804F026FB134A1449104803F0D9
:10186000EDFC204603F020FDB5EEC08AF1EE10FA43
:1018700011DBDFED0F7AB4EEE78AF1EE10FA0AD849
:10188000C8EE277A064817EE901A02F001FB0120F5
:10189000BDEC028B10BD0020FAE700BFB82F00207E
:1018A000BC2F0020E8E50008C8010020D917000877
:1018B0003333534010B5164C2368BFF35B8FDB07FF
:1018C00010D4204603F0CEFC60B1124A1248072122
:1018D00002F0CAFA114A12490F4803F0AFFC204641
:1018E00003F0E2FC0C4802F0ADFA07EE900AFDEEC0
:1018F000E77A40F6752317EE900A90FBF3F00A237F
:10190000584307EE900AF8EEE77A17EE900A10BDFA
:10191000602F00200000C07F642F0020C80100203D
:101920003D1C000810B5164C2368BFF35B8FDB0726
:1019300010D4204603F096FC60B1124A12480621EA
:1019400002F092FA114A12490F4803F077FC204640
:1019500003F0AAFC0C4802F075FA07EE900AFDEEBF
:10196000E77A40F6752317EE900A90FBF3F00A230E
:10197000584307EE900AF8EEE77A17EE900A10BD8A
:10198000082F00200000C07F0C2F0020C80100207D
:101990003D1C00080120704710B5164C2368BFF3AA
:1019A0005B8FDB0710D4204603F05CFC60B1124A69
:1019B0001248102102F058FA114A12490F4803F058
:1019C0003DFC204603F070FC0C4802F03BFA07EEA9
:1019D000900AFDEEE77A40F6752317EE900A90FB29
:1019E000F3F06423584307EE900AF8EEE77A17EE17
:1019F000900A10BDB02E00200000C07FB42E002041
:101A0000C80100203D1C000810B5164C2368BFF328
:101A10005B8FDB0710D4204603F024FC60B1124A30
:101A20001248112102F020FA114A12490F4803F01E
:101A300005FC204603F038FC0C4802F003FA07EEE0
:101A4000900AFDEEE77A40F6752317EE900A90FBB8
:101A5000F3F06423584307EE900AF8EEE77A17EEA6
:101A6000900A10BD582E00200000C07F5C2E002080
:101A7000C80100203D1C000838B5124D2C68BFF38A
:101A80005B8F14F0010414D1284603F0EBFB80B106
:101A90001C2221460C4809F0B7FB0B48214602F0F6
:101AA0007DFB0A4A0A49084803F0C8FB284603F0B0
:101AB000FBFB054B5A681B6810681840003818BFBC
:101AC000012038BD382E00203C2E0020C801002007
:101AD0001918000800B589B01C22002101A809F0DE
:101AE00093FB01A8032102F060FB019B049A1B04F5
:101AF0000120136009B05DF804FB00B589B01C2219
:101B0000002101A809F080FB01A8032102F04DFB90
:101B1000039B019A1A60012009B05DF804FB0000E4
:101B200038B5124D2968BFF35B8F11F0010414D151
:101B3000284603F097FB80B11C2221460C4809F08F
:101B400063FB0B48122102F029FB0A4A0A490848A4
:101B500003F074FB284603F0A7FB054B5A681B688B
:101B600012681A420CBF0120022038BD182E002036
:101B70001C2E0020C80100201918000810B588B0DC
:101B80000446FFF7CDFFA0420DD01C22002101A882
:101B900009F03AFB022101A802F007FB022C09D14F
:101BA000039B019A1A60FFF7BBFF231A5842584162
:101BB00008B010BD012C01BF019B049A1B041360E7
:101BC000F1E70000F8B50546064655F8044B8CB918
:101BD0000D4F386818B14FF0FF3101F0FBF8346851
:101BE00024B9284603F0F6FD2C463560386808B164
:101BF00001F008F9AC4204D0044905488B2202F0F8
:101C0000D1FF2046F8BD00BFE836002008D6000806
:101C100017D6000808B50348FFF7D4FFBDE8084011
:101C200003F0E0BD5847002008B50348FFF7CAFF9E
:101C3000BDE8084003F0F2BD5847002038B505461E
:101C4000064B45F8043B0446FFF7E4FF284602F044
:101C500048FA2046FFF7E8FF204638BDD0E50008E7
:101C600010B50446FFF7EAFF2046542103F026FD95
:101C7000204610BD054B197831B9054A506A054A0E
:101C8000C2E9000101221A70704700BF0430002031
:101C9000000C004008300020014B0021586A7047BA
:101CA000000C00401EF0040F0CBFEFF30880EFF3B0
:101CB0000980816911F8021C002932D101B590E830
:101CC0000F10E047BDE800508CE80300244B93E878
:101CD0000600914208BF70471A6041B91EF0100F0C
:101CE00010D1204B186820F0010018600AE02CE9A0
:101CF000F00F1EF0100F08BF2CED108A81F822E0C3
:101D0000C1F838C0906B92F8221061F0FF0E1EF0FF
:101D1000100F08BFB0EC108AB0E8F00F80F309880C
:101D20007047114A13689942FAD801B552F821C098
:101D30000FC8E047BDE80050CCF80000704701B57F
:101D400001F01CFABDE80140EFF3098CBEE701B5D4
:101D500001F0D8F9BDE80140EFF3098CB6E70000C7
:101D60002402002034EF00E0A0E60008EFF3108327
:101D70002BB9EFF31180003818BF01207047012004
:101D80007047000010B5034628B30468806860B14E
:101D900010F0030202D1DB680F2B25D86FF0080189
:101DA000002002F009F8002014E0DB68002BF5D1D8
:101DB000104BD3F8900080B100F06FFBB0B101235D
:101DC00083700023C0E90233F3220A4B02700A4AEF
:101DD00044605A6610BD0446EAE7D3F88000012249
:101DE000102100F0E6FAE9E71346E9E76FF0040195
:101DF000D7E700BF10020020CD1E000810B5044632
:101E000010B10378F32B07D020466FF0030101F0E7
:101E1000D3FF6FF0030010BD836863B1204601F06B
:101E200009FB00226FF0020101F078FCA068002895
:101E3000F4D101F06DFB00232370A378DB0701D4FC
:101E40000020E8E7064BD3F89000214610B100F0DF
:101E50003FFBF5E7D3F8800000F0DEFAF0E700BFC3
:101E600010020020930710B502F0010422D400F103
:101E70000C0384B153E8000F00EA01028A4203D048
:101E8000BFF32F8F002005E020EA010243E8002481
:101E900004B1EFE710BD53E8000F084203D1BFF3D0
:101EA0002F8F002005E020EA010243E8002404B15E
:101EB000F1E7EFE7C06800EA01031CB1994218BFDF
:101EC0000020E7E7002B08BF0020E3E7F8B58468AF
:101ED000054604B9F8BD94F82320616AA76828462E
:101EE000FFF7C0FF064638B1204601F0ACFA0022E9
:101EF0003146204601F012FC3C46EAE7F8B50D46B3
:101F000017461E46044620B10378F32B01D1002961
:101F100007DA20466FF0030101F04EFF6FF0030077
:101F2000F8BDFFF79FFF0028FAD186B13146432064
:101F300001F09AFC40B1074B5E692046314601F042
:101F400067FA756286F823706FF00100E8E76FF0BA
:101F50000200E5E7100200202DE9F041064620B11D
:101F60000378F32B01D1002909DA6FF00301304621
:101F700001F022FF6FF003052846BDE8F08100F173
:101F80000C0353E8002F42EA010543E8005000B17A
:101F9000F7E7B4681CB9204601F0BAFAECE794F808
:101FA0002320616AD4F808803046FFF75BFF0746BC
:101FB00078B194F823309B0756BF656A054620EA3E
:101FC0000505204601F03FFA00223946204601F07F
:101FD000A5FB4446DEE7000008B50246EFF30583A3
:101FE00033B100206FF0050101F0E6FE002008BDCE
:101FF000FFF7BCFE0028F4D1DFF808C0104600DF70
:10200000F5E700BF851D000838B502460D46EFF321
:1020100005834BB192B96FF00301104601F0CCFE7D
:102020006FF00304204638BDFFF7A0FE0028F1D171
:10203000DFF830C0104600DF0446F3E71378F32BD7
:10204000E9D1002DE7DB02F10C0353E8001F41EA60
:10205000050443E8004000B1F7E7104601F0D6F868
:10206000E0E700BF591F0008F8B504460E461746C2
:102070001D46EFF3058343B18CB920466FF0030191
:1020800001F09AFE6FF00300F8BDFFF76FFE002825
:10209000F2D1DFF82CC020462B4600DFF4E723788E
:1020A000F32BEAD1002DE8D1002EE6DB3A4631468B
:1020B0002046FFF7D7FE002808BF6FF00200E3E7D5
:1020C000FD1E000808B50246EFF305833BB110463C
:1020D0006FF0050101F070FE6FF0050008BDFFF71D
:1020E00045FE0028F3D1DFF808C0104600DFF5E711
:1020F000FD1D00087047EFF310832BB9EFF311803B
:10210000003818BF0120704701207047014BD86884
:10211000704700BF1002002070B5464C237A012B97
:1021200000F0858033B14FF0FF3001F039FE4FF001
:10213000FF3070BD404DD5E90B61EB68E3652B8A3C
:10214000A4F854303046AB68236400F01BF908B1A2
:10215000C4F88060D5E90561304600F013F908B98C
:10216000D4F880606667D5E90761304600F00AF967
:1021700008B9D4F88060A667D5E90961304600F057
:1021800001F908B9D4F88060E6676E6B3EB1D6E914
:1021900002233168304600F05FF9C4F88460AE6B0A
:1021A0003EB1D6E902233168304600F055F9C4F853
:1021B0008860EE6B3EB1D6E902233168304600F00C
:1021C0004BF9C4F88C602E6C3EB1D6E9022331681D
:1021D000304600F041F9C4F890606E6C3EB1D6E92B
:1021E00002233168304600F037F9C4F89460AE6CD1
:1021F0003EB1D6E902233168304600F02DF9C4F82B
:102200009860EE6C3EB1D6E902233168304600F0AA
:1022100023F9C4F89C602D6D3DB1D5E902232968EE
:10222000284600F019F9C4F8A050012323720020B9
:102230007FE700BF1002002030E6000870B5254D92
:102240002B7A012B07D06FF0060001F0A9FD4FF0AB
:10225000FF34204670BD01F049FB10B94FF0FF304C
:10226000F3E71D4A1D4E1E497068FF2382F8223095
:1022700092F82230D26863F0FF03DB4314BFB3FA55
:1022800083F32023C3F12003C2F30222934298BFB9
:10229000531CFE2202FA03F30F4ADBB2D37701F09C
:1022A000FFFB04460028D9D101F032FC286101F07F
:1022B00017FC0C4801F0BEF801F022F93368DB0787
:1022C0004CBF0223032383F31488BFF36F8F0223D1
:1022D0002B72BEE71002002000ED00E030E600089F
:1022E0004F1D00082C020020704738B504460D46EB
:1022F000FFF700FF29462046BDE8384001F012BD37
:1023000008B5FFF7F1FFEFF3058333B16FF0050078
:1023100001F046FD6FF0050008BDFFF7ECFE002858
:10232000F4D1DFF808C000DFF6E700BF192100088C
:1023300008B5EFF3058333B16FF0050001F030FD10
:102340006FF0050008BDFFF7D6FE0028F4D1DFF8D6
:1023500008C000DFF6E700BF3D22000808B5EFF334
:10236000058313B1054BD86808BDFFF7C4FE0028EC
:10237000F8D1DFF80CC000DFF6E700BF1002002044
:102380000D21000810B5034688B1084310F007007E
:102390000DD117290AD9196008391022CC189C6070
:1023A0005A60585099684A60D860012010BD0020DA
:1023B000FCE770B5034668B361B3032A2AD80F312E
:1023C00021F0070600F10804214624684D68601AD0
:1023D00025F00305401B864203D920680028F3D16D
:1023E00070BD5D68186835445D600344083B5868FB
:1023F000854288BF5D604B6832431BB94A6001F17A
:102400000800EDE723F00303C818CC5042600860D1
:102410000830E5E70020E3E710B5034680B1C9B115
:10242000A1F1080400F108020021A24209D150687C
:1024300020F003045868001B586041B95160012026
:1024400010BD106811460028FAD00246EDE7136867
:102450000B60F4E70846F3E730B5C0B189B1C2B10B
:10246000CBB10024C0E9014202FB01F41D19016057
:10247000C360436105611846013904D1A41A19519A
:102480000121084630BD851805602846F4E701465D
:10249000F7E71146F5E71946F3E710B570B100F11B
:1024A000140353E8002F12B9BFF32F8F04E0116813
:1024B00043E8001404B1F4E70AB9104610BD043033
:1024C00050E8003F591C40E8001404B1F8E7F4E775
:1024D00030B5F0B1C3688B421BD803698B4218D961
:1024E00000F114031A680A60BFF35F8F53E8002FEE
:1024F0000C689442F6D143E8001505B1F2E70430C8
:1025000050E8003F5A1E40E8002101B1F8E70020E2
:1025100030BD6FF00300FBE7EFF310832BB9EFF34F
:102520001180003818BF0120704701207047D1E9A1
:10253000013223B19A608A681AB153607047C2624F
:10254000F9E70363704700002DE9F84F8846074616
:1025500038B131B1B0FA80F1B8FA88F30B441F2BCF
:1025600008DC6FF00301002001F03CFC0024204651
:10257000BDE8F88F08F1030626F003060C3606FBCB
:1025800000F9F2B194683CB1A30702D1D368332BB0
:1025900005D86FF00801E6E7D368002BF9D1D2F82F
:1025A00000A0D2E904523DB115F0030301D19145D9
:1025B00054D96FF00901D6E7002AFAD11CB193462D
:1025C0000DE092461546274BD3F8A000E0B1FFF787
:1025D00064FF0446A8B1002D3ED14FF0010B214B02
:1025E0000022D86F4946FFF7E4FE1E4B0546B8B9F6
:1025F000BBF1000F05D0D3F8A000214658B1FFF77A
:1026000067FF6FF00401AEE7D3F8800001223421A8
:10261000FFF7CFFEDDE7D3F88000FFF7FDFEF0E720
:102620004A46002108F0F0FD4BF00203FA22A370A5
:102630000023C4E90983C4E90B332270A360324646
:102640002B46C4F804A0394604F10C00FFF704FF40
:10265000044B054A1A678AE70123E7E7002CE5D116
:10266000B1E700BF10020020F926000810B500F104
:10267000280353E8002F12B9BFF32F8F04E0511E37
:1026800043E8001404B1F4E70AB9002010BDC06AA1
:1026900001220028F9D0811CD1E84F3FC1E8442F26
:1026A00004B1F9E7DBB2002BF0D08068F1E7036BEF
:1026B00030B5E3B1CD780024DA78AA420FD31A46B8
:1026C000C1E901248AB19160A4B16160283050E869
:1026D000003F5A1C40E8002101B1F8E730BD5A68BC
:1026E0001C46002AECD01346E6E7C162ECE7C1E9DC
:1026F0000133C1620163E9E7F8B5877804468FB317
:10270000C568014600272846FFF711FF277005F12D
:102710000C042046FFF7DCFEAB68002B48D02046B7
:10272000FFF7BBFE0446002842D0284600F082FE98
:102730003A460646394600F0F1FF304600F0D6FE34
:102740006A6A8168064604F10C0009F057F9F9231A
:102750002370A770F368E37021462846BDE8F8406F
:10276000FFF7A5BF8568AB68002BF5D05B78832B9E
:10277000F2D1284600F05EFE3A460646394600F0A1
:10278000CDFF304600F0B2FE06466A6A806804F16A
:102790000C0109F033F9F3680BB1E2781A700023E9
:1027A0002370214605F10C00BDE8F840FFF790BE0C
:1027B000F8BD00002DE9F0410E4617469846044644
:1027C00018B10378FA2B00D141B920466FF003010C
:1027D00001F008FB6FF00300BDE8F0818368BBB136
:1027E0005B78832B14D100F025FE012205460021E1
:1027F00000F094FF284600F079FE0546626A806882
:10280000314609F0FBF8EB6803B11F700020E3E7E5
:1028100004F10C00FFF741FE054670B13146626AD3
:102820000C3009F0EBF8F9232B700023AB70EF703C
:1028300029462046FFF73BFFE8E7B8F1000F11D02B
:102840004146932001F010F810B96FF00100C3E782
:10285000064B2046596900F0DBFDEFF30983C3E91D
:102860000267F2E76FF00200B6E700BF1002002037
:102870002DE9F0410F4616469846044618B10378F4
:10288000FA2B00D141B920466FF0030101F0AAFAFA
:102890006FF00300BDE8F081FFF7E8FE0546002871
:1028A0003AD001462046FFF742FE626A05F10C016C
:1028B000384609F0A3F80EB1EB783370002704F125
:1028C0000C062F7029463046FFF702FEA3680BB9AD
:1028D0000020DFE73046FFF7E0FD05460028F7D08F
:1028E000204600F0A7FD39460646012200F016FFFB
:1028F000304600F0FBFD626A8168064605F10C0077
:1029000009F07CF8F9232B70AF70F368EB7029465F
:102910002046FFF7CCFEDBE7B8F1000F11D04146AF
:10292000832000F0A1FF10B96FF00100B2E7064B61
:102930002046596900F06CFDEFF30983C3E9027684
:10294000F2E76FF00200A5E71002002008B5064B81
:1029500008219A6ED86EFFF7F7FD044BD864B0FAE1
:1029600080F04009404208BD30E600081002002017
:102970002DE9F04106460F4690461C46EFF30583CD
:102980004BB196B930466FF0030101F02BFA6FF0AE
:102990000300BDE8F081FFF7BFFD0028F1D1DFF8AB
:1029A0004CC03046234600DFF3E73378FA2BE9D1F9
:1029B000002FE7D0002CE5D106F10C00FFF76DFDEC
:1029C000054680B1726A39460C3009F017F8F923D0
:1029D0002846C5E901762B70AC7085F8038000F0BD
:1029E00015FC2046D5E76FF00200D2E7B5270008B6
:1029F000F8B504460F4616461D46EFF3058343B16E
:102A00008CB920466FF0030101F0ECF96FF0030080
:102A1000F8BDFFF781FD0028F2D1DFF848C020465D
:102A20002B4600DFF4E72378FA2BEAD1002FE8D019
:102A3000002DE6D12046FFF719FE054670B100F1E2
:102A40000C01626A384608F0D9FF0EB1EB7833709A
:102A50002846EC6000F0DAFB0020D9E76FF00200B6
:102A6000D6E700BF71280008EFF310832BB9EFF30E
:102A70001180003818BF0120704701207047000006
:102A800038B5034638B3D0E90045806860B110F02E
:102A9000030202D1DB681B2B27D86FF0080100204E
:102AA00001F090F9002015E0DB68002BF5D1114B07
:102AB000D3F8940090B1FFF7F0FCC0B1012383700C
:102AC0000023C0E90233C0E90433F5220270C57067
:102AD0004460037638BD04460546E8E7D3F8800035
:102AE00001221C21FFF765FCE7E71346E7E76FF0DB
:102AF0000401D5E710020020294B70B55D6904463A
:102B00000E4635B96FF0070101F05CF94FF0FF3068
:102B100070BD10B10378F52B07D020466FF003018C
:102B200001F050F96FF00300F2E7037E53B9C0E9FA
:102B30000353EB6A436103B11861EC62012323760E
:102B40000020E5E7C278D1070DD5C168A9420AD1B6
:102B5000FF2B06D16FF00F0101F034F96FF0020086
:102B6000D6E70133EBE7002EF8D093070AD5E068EB
:102B700095F9203090F920209A4203DA80F820302D
:102B800000F06AFC3146532000F06EFE10B96FF081
:102B90000100BDE72946204600F03AFCF7E700BFF8
:102BA000100200202F4B5A6970B5044632B96FF0FD
:102BB000070101F007F94FF0FF3070BD10B1037845
:102BC000F52B07D020466FF0030101F0FBF86FF002
:102BD0000300F2E7037E33B96FF00E0101F0F2F863
:102BE0006FF00200E9E7C168914202D06FF00D0179
:102BF000F4E7013BDBB203760BB10020DDE743696C
:102C00000BB1016919612169E9B14B6192F9213078
:102C1000D56AD5B982F82030A36883B1204600F088
:102C200009FC06462A46294600F078FDF36A6361EE
:102C3000C4E9036503B11C610123F462237600201B
:102C400000F066FCD9E7D362E0E7E978890706D5AA
:102C5000A96821B191F920108B42B8BF0B466D696C
:102C6000D7E700BF1002002010B5044610B103786A
:102C7000F52B07D020466FF0030101F0A3F86FF0A9
:102C8000030010BD037EBBB16369C0680BB122694C
:102C90001A612269BAB1536190F92120C36AA3B9BC
:102CA00090F92030934203D080F8202000F0D4FB2C
:102CB000A068B0B900F02CFC00232370A378DB07D8
:102CC00018D40020DDE7C362E6E7D978890706D586
:102CD000996821B191F920108A42B8BF0A465B6910
:102CE000DDE7204600F0A6FB00226FF0020100F0B5
:102CF00015FDDDE7064BD3F89400214610B1FFF730
:102D0000E7FBDEE7D3F88000FFF786FBD9E700BFDB
:102D1000100200202DE9F0410446002601270CB9DD
:102D2000BDE8F081E378D4F814801B0712D5A368BE
:102D300026767BB1204600F07DFB00220546114639
:102D400000F0ECFCEB6A6361C4E9035603B11C615B
:102D5000EC6227764446E2E710B4C3789B071DD5A2
:102D6000C06890F92120C36ADC78A40709D59C6863
:102D70008C4208BF8C6824B194F92040A242B8BFAD
:102D800022465B69002BEFD190F92030934205D0A9
:102D900080F820205DF8044B00F05EBB5DF8044B2A
:102DA0007047000008B50246EFF3058333B10020F9
:102DB0006FF0050101F006F8002008BDFFF754FE92
:102DC0000028F4D1DFF808C0104600DFF5E700BFA7
:102DD000812A000808B50246EFF305833BB110468F
:102DE0006FF0050100F0EEFF6FF0050008BDFFF782
:102DF0003BFE0028F3D1DFF808C0104600DFF5E7FE
:102E0000F92A000808B50246EFF305833BB11046E6
:102E10006FF0050100F0D6FF6FF0050008BDFFF769
:102E200023FE0028F3D1DFF808C0104600DFF5E7E5
:102E3000A52B000808B50246EFF305833BB1104609
:102E40006FF0050100F0BEFF6FF0050008BDFFF751
:102E50000BFE0028F3D1DFF808C0104600DFF5E7CD
:102E6000692C0008EFF310832BB9EFF311800038C1
:102E700018BF01207047012070470C30D0E85F3F39
:102E800013B9BFF32F8F04E05A1EC0E8512F01B1D0
:102E9000F4E798B2003818BF0120704730B500F150
:102EA0000C02C189D2E85F3F994202D8BFF32F8F4D
:102EB00004E05C1CC2E8554F05B1F3E7C0899BB242
:102EC000984294BF0020012030BD000070B54FF63D
:102ED000FE730D46411E9942044601D8A84206D20F
:102EE0006FF00301002000F073FF002070BD12B3EB
:102EF0009068166840B110F0030302D1D2680F2A1F
:102F00000DD86FF00801EDE7D368002BF9D1104B15
:102F1000D3F8980088B1FFF7C0FAA8B101238370F5
:102F20000023F62283600A4B02700A4A46608581BC
:102F3000C4819A66DAE71646E9E7D3F880000122F1
:102F40001021FFF736FAE8E76FF00401CBE700BF86
:102F5000100200200930000810B5044610B10378B3
:102F6000F62B07D020466FF0030100F031FF6FF021
:102F7000030010BD83683BB100F05CFA0122002120
:102F800000F0CCFB0020F4E7FFF788FF0028F9D120
:102F900020466FF0100100F01BFF6FF00200E8E721
:102FA00010B5044610B10378F62B07D020466FF019
:102FB000030100F00DFF6FF0030010BD836863B1E3
:102FC000204600F037FA00226FF0020100F0A6FB65
:102FD000A0680028F4D100F09BFA00232370A378A6
:102FE000DB0701D40020E8E7064BD3F89800214620
:102FF00010B1FFF76DFAF5E7D3F88000FFF70CFA90
:10300000F0E700BF10020020836810B504465BB1F2
:10301000FFF733FF40B1204600F00CFA0022BDE874
:103020001040114600F07ABB10BD000010B50446F8
:10303000EFF3058333B100206FF0050100F0C8FE07
:10304000002010BDFFF70EFF0028F4D1DFF808C004
:10305000204600DFF5E700BFCD2E000810B504467E
:10306000EFF3058343B184B920466FF0030100F00C
:10307000AFFE6FF0030010BDFFF7F4FE0028F2D1A1
:10308000DFF830C0204600DFF5E72378F62BEBD1E0
:103090002046FFF703FF20B1204600F0B7F80020DC
:1030A000E9E720466FF0100100F092FE6FF0020099
:1030B000E1E700BF592F000808B50246EFF305838A
:1030C0003BB110466FF0050100F082FE6FF0050085
:1030D00008BDFFF7C7FE0028F3D1DFF808C010468F
:1030E00000DFF5E7A12F000810B5D0E85F3F5A1CBC
:1030F000914200D80022C0E8542F04B1F5E798B2FD
:1031000010BD000038B51C4C00F0FEFCE368013334
:10311000E36000F0BBF9002000F0FAF9236D03B181
:103120009847226C32B3A369E16B994203D0D96905
:10313000E36301B9DA61DA69C2B9237A022B19D1E2
:10314000656ABDB1E36B95F9202093F920309A426E
:1031500010D1284600F077F9E06B00F08FF928468F
:1031600000F0CEF9236CE563EB6103E0013ADA612C
:10317000002AE2D038BD00BF1002002038B5214C33
:1031800004F15605B4F85410D5E85F3F13B9BFF306
:103190002F8F04E05A1EC5E8502F00B1F4E79BB210
:1031A0005BB31948FFF7A0FFE36D53F8200020B38D
:1031B0000378F13B082BE5D801A252F823F000BFB9
:1031C000E531000885310008EB3100088531000841
:1031D00085310008EF310008F3310008853100081F
:1031E000F7310008236E9847CCE7636EFBE7A36EC8
:1031F000F9E7E36EF7E7236FF5E7BDE83840002015
:1032000000F086B9100200206A02002070B5164C4A
:103210000546B4F8541004F15602D2E85F3F9942D3
:1032200002D8BFF32F8F04E0581CC2E8560F06B136
:10323000F3E79BB2994205D829460220BDE87040C9
:10324000FFF753B804F15800FFF74EFFE36D43F862
:103250002050637A23B9054B4FF080525A6070BDFD
:103260000123A372FBE700BF1002002000ED00E085
:10327000EFF310832BB9EFF31180003818BF012052
:103280007047012070470378F12B00D07047C06869
:10329000F9E7000010B5C469621CD0E904310CD113
:1032A00003B1596142691AB113610023436101E01E
:1032B000074A13630023C36110BD1BB1DA6959616A
:1032C0002244DA614269002AEED1014AD362F1E771
:1032D000100200200A4A90F92010012310B5437013
:1032E000536A1C321BB193F920408C4205DCC0E9C3
:1032F0000232906003B1D86010BD1A469B68F1E7B6
:1033000010020020014B5869704700BF10020020D6
:1033100010B50023038083789A07044608D513F07C
:10332000100F016B0E4B0FD0D3F88400FFF7D0F8CD
:10333000A378DB0712D50A4BD3F88800214638B1B1
:10334000BDE81040FFF7C4B8586FFFF765F8EFE726
:10335000BDE81040D3F88000FFF75EB810BD00BF95
:103360001002002008B500F043FDDFF810C000DFB8
:103370004FF0FF31002000F019FDFEE7853700080F
:10338000930710B502F0010422D400F1280384B1A0
:1033900053E8000F00EA01028A4203D0BFF32F8FE7
:1033A000002005E020EA010243E8002404B1EFE731
:1033B00010BD53E8000F084203D1BFF32F8F002048
:1033C00005E020EA010243E8002404B1F1E7EFE759
:1033D000806A00EA01031CB1994218BF0020E7E7A8
:1033E000002B08BF0020E3E7C278D207034601D4D0
:1033F000FFF78EBF0422054942700022C2604A6B6B
:10340000826002B1D0604B63704700BF10020020A1
:1034100010B591F9202083681BB193F920409442A4
:1034200005DAC1E90230816003B1D96010BD1846E8
:103430009B68F1E70346806882689A6002B1D360B6
:103440000023C3607047C2682AB18368936003B1E8
:10345000DA600023C360704710B5044664B1237876
:10346000F12B07D0FFF7EFFF01462046BDE81040E3
:10347000FFF7CEBFE468F1E710BD0000012301466D
:1034800043700148FFF7C4BF2C02002038B5164D29
:10349000EC6A44B3E369013BE36123BB6378732BBC
:1034A00006D009D8532B0BD003F0DF03432B0DD1EB
:1034B0002046FFF7E8FE09E003F0EF03832BF6E771
:1034C0002046FFF7E0FE2146FFF746FC2046FFF7C7
:1034D000BAFFFFF7D3FF246924B1E369002BDDD0E5
:1034E00000236361EC6238BD1002002090F82230A6
:1034F000826B13F0100F14BF20206020104470471F
:1035000002234370014B9861704700BF10020020F6
:1035100070B5124D04462E7A696990B9022E0FD10A
:103520006C6A6CB194F9202091F920309A4207DD41
:103530002046FFF788FF0846FFF7CCFE6670AC61B7
:1035400070BD022E05D190F9202091F920309A42C9
:10355000F1DC2046BDE87040FFF790BF100200206C
:103560002DE9F74F8146019140B96FF0030100F05A
:103570001DFC0024204603B0BDE8F08F002A4CD08B
:10358000946844B1A50702D1D368432B06D86FF0E5
:1035900008010020EBE7D368002BF8D1D2E90456EC
:1035A00097693DB1680702D1002E40F0A6806FF008
:1035B0000A01EEE72FB17B1E372B03D96FF00B0109
:1035C000E7E7182736B17107F1D14E4BA6F1480154
:1035D0009942ECD8D2E900A300935CBB4A4BD3F8E4
:1035E000880000B3FEF759FF044698B14FF0010878
:1035F0003DBBDFF814B1002E5FD1444ADBF88400F4
:10360000566D002859D0FEF748FF0546A8B9B8F115
:10361000000F5CD16FF00401BBE7924615461827F6
:1036200016460092DAE7D3F8800001224421FEF723
:10363000C0FED9E74FF00008DAE748F0100848F07C
:10364000020840F2F1132380009BE3700023C4E9D9
:103650000233C4E90433C4E90633C4E90933C4E9D5
:103660000B35A6F140032B44C4E90E397FB2284B39
:1036700084F80280FD22C4F804A084F8207084F845
:103680002170628466632B60204B1B685B072AD421
:10369000A36B34220021184607F0B6FD1D4A1A4BD1
:1036A000C0E90D294FF08072C263019A02621A4A82
:1036B0001A662046FFF72CFF5CE72A46DBF8740009
:1036C0003146FEF776FE05460028B8D19FE7DBF8C5
:1036D0008800214610B1FEF7FBFE9BE7DBF8800077
:1036E000FEF79AFE96E7B608113E4FF0CC33002E57
:1036F000CED045F8043F013EF9E7002F7FF45BAFE1
:10370000182760E7B7FFFF7F1002002030E60008AF
:10371000A52E5AE2653300084137000838B5054642
:103720001446FFF7E3FE01602846FFF7B3FD1CB126
:10373000BDE83840FFF7ECBEBDE83840FFF79EBE5D
:1037400010B54378332B04460CD1416A90F82320FE
:10375000FFF716FE014628B120460022BDE81040C2
:10376000FFF7DCBF10BD10B50446806918B1002218
:103770001146FFF7D3FF6378232B02BFA368002213
:103780009A6110BD70B50F4C267A022E18D1636A6B
:10379000B3B16569E86AFFF7BDFA2846FFF7E3FFB2
:1037A00004F11C00FFF746FE4670A061EFF30983A9
:1037B000AB63002363612846BDE87040FFF714BE89
:1037C00070BD00BF1002002010B5044610B1037890
:1037D000F12B07D020466FF0030100F0E7FA6FF0FD
:1037E000030010BD437803F00F03022B06D0032B18
:1037F0002DD0012B10D06FF0020108E0184B1A7A7F
:10380000022A01D15B6A4BB96FF00201204600F039
:10381000CDFA6FF00200E4E7FFF715FEE06AFFF76C
:1038200079FA2046FFF79FFF6178022914D10D48ED
:10383000FFF700FE0A4B41709861EFF30982A26323
:1038400000225A612046FFF7CFFD0020C9E7FFF7AD
:10385000FAFDFFF71FFDE1E70020FFF759FEF1E752
:10386000100200202C02002038B51E4C237A022BB7
:10387000024634D1606AA0B163695A704A1C16D1FD
:10388000226B002172B94FF0FF30C3E90421D861E7
:1038900059B10B611448FFF7CDFD02234370A061BD
:1038A000012038BD11461269ECE72363F2E7E26AB2
:1038B000002012B1D569A9420BD2C3E90420D96115
:1038C00058B10361002AE5D0D0695361401AD06134
:1038D000E0E71046491B1269EBE7E362F2E70020DC
:1038E000DFE700BF100200202C02002038B50D4C8D
:1038F0000D48A26D0D4D0021FFF732FE636EA862E8
:103900005BB1984758B9E26DE96C206EFFF728FE6D
:10391000A864003818BF012038BD0120FCE7002052
:10392000FAE700BF30E600081D3D00081002002045
:1039300010B50446EFF3058333B100206FF00501A5
:1039400000F034FA002010BDFFF792FC0028F4D1FB
:10395000DFF808C0204600DFF5E700BF613500084A
:1039600008B5EFF3058313B1054B586908BDFFF7A0
:103970007FFC0028F8D1DFF80CC000DFF6E700BFBD
:10398000100200200533000810B5044600F03CFA90
:10399000EFF305833BB120466FF0050100F006FA16
:1039A0006FF0050010BDFFF763FC0028F3D1DFF8CE
:1039B00008C0204600DFF5E7C937000830B50C4DD8
:1039C0006B6C002213B11C698C420AD9C0E9022336
:1039D00001611BB11C699860641A1C612AB1D06036
:1039E00030BD1A46091BDB68ECE76864F8E700BFE6
:1039F000100200202DE9F041184D6C6C54B323697E
:103A00006E69013B23610127236913BBE3680BB196
:103A1000A2689A606B640023E86C1A4604F11801EE
:103A2000FEF7A6FF58B1D5E90583214603206B6157
:103A3000FEF75BFC6B6913B9B04508BF0026E3785D
:103A4000012B09D161692046FFF7B8FF6C6C002C8F
:103A5000DAD16E61BDE8F0816770F7E710020020EF
:103A600008B5FEF773FF18B9034B044A1A6508BD81
:103A70004FF0FF30FBE700BF10020020F5390008CF
:103A800007B504464FF0FF33002269462046FEF793
:103A9000AFFF0028F6D1DDE900309847F2E70000DB
:103AA000A8B10C4B1B68B3FBF0F00138B0F1807F7C
:103AB0000DD2094BFF2283F823204FF0E02306228A
:103AC0001A61586100209861044B187070474FF0DC
:103AD000FF307047C403002000ED00E06036002096
:103AE000074B1A782AB100221A70064B4FF08062F9
:103AF0005A604FF0E022136943F0010313617047ED
:103B00006036002000ED00E04FF0E0231B697047B5
:103B10004FF0FF307047000008B5094B094A1A60A2
:103B2000094B9B1A094A1360094B0A4A1A600A4B4F
:103B30009B1A0A4A136000F061F800F093F800BF86
:103B4000C836002000FC012000000220C4360020FE
:103B500018490020304D002000FC012014490020AD
:103B60000F4A38B50F4B13600B250F4B55601C24C3
:103B70001046D4609360FFF715F90C4B0C4A18609F
:103B80000C4BD460C2E9003510460B4B9360FFF735
:103B900009F90A4B1860BDE8384007F01BBD00BFAB
:103BA0009436002058D60008A4360020C0360020E5
:103BB0006436002065D60008743600209036002058
:103BC000FCF7ACBB024B4FF0FF311868FFF702B9AE
:103BD000C0360020014B1868FFF714B9C03600202A
:103BE000024B4FF0FF311868FFF7F4B89036002011
:103BF000014B1868FFF706B99036002008B500F0B1
:103C00002FFC0C4B0C4998684FF000531A1802F126
:103C10006042126843F8042B8B42F7D1054B4FF0FA
:103C200000529A6002F0DCFE03F0AAFABDE80840F8
:103C300000F015B800ED00E0C401002070477047A7
:103C400008B500F041F8FFF7F9FFFFF789FFFFF72C
:103C5000F6FF01F0F3F9BDE80840FFF7B1BFFEF74A
:103C60004FBB000007B5104A104B13614FF480534F
:103C700053614423D3600E4B9360182393610D4826
:103C80000D4B13600021FFF753FE034628B9064A87
:103C90000A4900900A4801F0D9F9FEF749FB0023D0
:103CA000084900931A46F5E73047002030370020D6
:103CB000EC360020413C00086FD6000874D600089E
:103CC0001D01018090D600081FB5054B0FCB8DE874
:103CD0000F006846FFF766F8024B186004B010BD8D
:103CE00004E70008E836002073B506460C46154682
:103CF00001F0A6F958B906342ABF064B064953F815
:103D00002410002300933246284601F09FF902B0A8
:103D100070BD00BF14E70008BDD7000808B500F06B
:103D200089F8000007B50023411E009302460023D6
:103D3000042919D8DFE801F003080C1014000C491D
:103D40000C48012201F082F90B490C480222F9E7E4
:103D50000B490C480322F5E70B490C480422F1E714
:103D60000B490C480522EDE70B490C48EAE700BF78
:103D7000B5D6000825010280D6D6000826010280AB
:103D8000FBD600082701028030D7000828010280F6
:103D90006BD700082A010280ABD70008000102801F
:103DA000014A0146FFF7A0BF31010180014AFFF738
:103DB0009BBF00BF32010180014AFFF795BF00BFE2
:103DC00037010180014AFFF78FBF00BF3301018037
:103DD00011F1110F02D0024AFFF786BF704700BFF2
:103DE00034010180014AFFF77FBF00BF3801018025
:103DF00010B5FFF7B5FD034B1B6813B1BDE81040CC
:103E0000184710BD54470020024B1B6803B11847E8
:103E1000704700BF5447002008B500F07FFF01F055
:103E20002FF901F067F901F041F9BDE8084000F011
:103E30008BBF000008B5024C23689847FCE700BF21
:103E4000B402002038B50546044655F8043B9B688B
:103E50009847284602F004F923680546DB682046A7
:103E60009847284638BD000038B5084B0360044623
:103E700002650D46FDF7CEFE2946201D01F018FF14
:103E80002046FDF7D1FE204638BD00BFD0E5000832
:103E900070B50546044655F8043B0E469B689847A6
:103EA0002846314602F0F4F823682046DB68BDE876
:103EB00070401847036801221B69002118470368F6
:103EC00000221B69114618476FF015007047E43057
:103ED00001F088BCE43001F0A1BC00EB01105430CB
:103EE000C3680BB11B681847704700002DE9F0410B
:103EF00005469846114B45F8043B04460E461746C6
:103F000000215022284607F07FF904F1540004F103
:103F1000E4030022C26010309842FBD101F05AFC49
:103F200043463A463146284602F090FB284604496B
:103F3000224602F063F92046BDE8F08134E700082C
:103F4000DB3E000884B073B5064607AC84E80E007B
:103F500056F8043B9B6805469847002301930A9B4B
:103F6000009394E80E00304602F014FA2B680446E1
:103F7000DB6828469847204602B0BDE8704004B090
:103F800070470000F7B506460D4656F8043B174645
:103F90009B680446984730463A46294602F04FFA55
:103FA0002B7B082B064606D90023064906480093BA
:103FB0001A4601F04BF823682046DB6898473046E4
:103FC00003B0F0BD68D800081B01108070B505462D
:103FD000044655F8043B9B689847284602F080FA4F
:103FE00023682046DB68BDE8704018472DE9F0479C
:103FF000036817460E464FEA071804469B6808F107
:10400000540598472544F268EB6804F10409DAB1D5
:104010000BB901F035F8AE420BD02846FDF7BAF9DE
:10402000A044F368C8F860301BB15B68314628468D
:10403000984701224846394602F03CFB2368204657
:10404000DB68BDE8F04718470BB101F02FF82846B0
:10405000FDF7A0F90022EA60ECE700007FB5144B01
:104060000360002504462E46EAB2694620460396C0
:104070000135FFF7BBFF6846FDF78CF9092DF3D139
:10408000251D284602F0C8F8284604F1E40502F090
:10409000D3F8284601F0DCFB04F15406B54204D005
:1040A000103D2846FDF776F9F8E7204604B070BDCC
:1040B00034E7000810B50446FFF7D0FF20464FF460
:1040C000847101F0FBFA204610BD002070470029E2
:1040D0000CBF6FF018000020704701207047704738
:1040E00070477047EFF3108372B6054A117831B903
:1040F0000449DB4303F001030B7001231370704785
:10410000804700208147002008B5EFF31083DB4390
:1041100013F0010304D006490648362200F042FDA0
:10412000054A1370054B1B7803B162B608BD00BF8A
:10413000B1D80008CDD80008804700208147002072
:1041400070B50E460446154602F0E6FB013609D06E
:104150002046002102F004FC29462046BDE87040BC
:1041600002F0FABB70BDF8B50F46044615461E4670
:1041700002F0D2FB013710D020685EB1A36818604E
:104180000121204602F0ECFB29462046BDE8F8401C
:1041900002F0E2BBE3680004F1E7F8BD0022FFF79C
:1041A000CFBF13460022FFF7DEBF0022FFF7F9BFA3
:1041B00007B502468A4208460AD0531C08D001308F
:1041C00005D0002304490548009300F03FFF104646
:1041D00003B05DF804FB00BFE7D8000830010180A0
:1041E000B1F900305A1C01D118467047834201D101
:1041F000486870470C31F3E7421C13B504460AD0F7
:10420000FFF7EEFF431C06D1002304490448009346
:10421000224600F01BFF02B010BD00BFF8D8000816
:1042200030010180B1F900305A1C01D118467047A5
:10423000834201D1886870470C31F3E72DE9F041E2
:10424000456895F832706FBB03685B6898472C6AC5
:10425000844227D02B69A96895F934202862041B71
:104260001C40A1FB0441B2B16E6A361941F1000154
:10427000002A19DBC2F12000A2F1200326FA02F481
:1042800001FA00F021FA03F304431C43D14004FA7D
:1042900002F2B21A6A62D5E90A321B1941EB020135
:1042A000C5E90A31BDE8F081D5F80C8030464246B8
:1042B0003B4607F013FF08FB106604466E62EAE710
:1042C000824206D98A420BD9884294BF002001203D
:1042D0007047884206D98A428CBF0020012070476F
:1042E00001207047002070472DE9F0414668336B8C
:1042F00023F07F4828F0FF080546B8F1000F5CD195
:10430000FFF79CFF7368002B59D0D3E90003D6E96F
:104310000A1281429A4104D32B68BDE8F0415B69DF
:1043200018476C68D4E90A12401A63EB020CD4E90E
:104330000572E369824273EB0C031FD3E368A3FBAE
:10434000000103FB0C1194F93330A3B1A26802F110
:10435000FF3C1CEB000041F10001002B1BDBC3F113
:10436000200CA3F12002D84001FA0CFC40EA0C001A
:1043700021FA02F21043874228BF0746236A1F44EE
:1043800023691F40336ABB4209D11249124840F2E7
:10439000C91200F007FC434607F0A0FEEBE72B68CC
:1043A00038461B6998472B685B6898473A46014630
:1043B000306AFFF785FF0028AED1BDE8F081736950
:1043C000306A326918442B681040BDE8F0411B691F
:1043D000184700BF3BD900084DD9000870B5054605
:1043E00000F09CFCD5E90034DB68984794F8323043
:1043F0001BB1BDE8704000F0A7BC012384F8313048
:104400006368A3B12846FFF719FF6368D4E90A621D
:10441000D3E9000186428A4109D36A68DB685268A1
:1044200063602368002BEBD090689847E8E700238F
:1044300084F831302846FFF757FFDAE7704700006D
:10444000024B1B680BB1024818477047B8020020A6
:1044500044E70008B1F90C20B1F9041002F072BC75
:1044600008B5BFF35F8F1C4BD3F8902012F47C4F3C
:10447000C2F3072104D1194919483B2200F092FBED
:104480000022C3F8942010468A421FD11022C3F89C
:104490009C20144AC3F8A0201322C3F89C20124A7F
:1044A000C3F8A0201122C3F89C20104AC3F8A02012
:1044B0000F4AC3F89C200F4AC3F8A0200722C3F874
:1044C0009420BFF34F8FBFF36F8F08BDC3F89820C0
:1044D000C3F8A0000132D7E700ED00E098D900084A
:1044E000A7D9000839F00206390702133FF50B136C
:1044F0001200008039000213102300F007B82023B7
:1045000000F004B8302300F001B840239C46F0B41A
:1045100004AE7546E80801D3EFF309860E4F0FCEBF
:104520000FC70FBC0FC74046494652465B460FC7F0
:104530001DCE3100A60A00D304316E0900D24831E5
:104540001FC7EFF309806946EFF3148663C760461F
:10455000014900F077F800BFC0470020F0B52B4EAE
:1045600085B000243546214656F8042B28480134EE
:1045700000F0BAFB0D2CF6D1AB6C02936B6C01937F
:104580002B6C244C0093D5E90E23696B224800F074
:10459000ABFB2168214800F0A7FBE16AA26AA36A8D
:1045A000A06A266BE76B000CCDE901670090C3F3AE
:1045B00007231B48D2B200F097FBA36A1E0603D55F
:1045C000616B184800F090FBA36A180403D5A16B37
:1045D000154800F089FBEB6C190712D5134800F061
:1045E00083FB2B6DDA070FD5114800F07DFBEB6CD8
:1045F0005B074CBF0F48104805B0BDE8F04000F025
:1046000073BB0E4800F070FB0D48EEE7C04700207A
:10461000B4D9000800ED00E0C2D9000811DA0008A2
:104620001FDA00086EDA00087CDA00088ADA00086F
:1046300099DA0008C9DA0008D5DA0008B9DA000802
:10464000A6DA000807B504460D461A48012100F015
:10465000CFFA68BB184800F047FB302C19D0402C2B
:104660001CD0202C1FD11548154C00F03DFB1548DF
:1046700000F03AFBFFF772FF134800F035FB0D4BDB
:1046800000221A700023114900932A46204600F0A8
:10469000DDFC0F480F4C00F027FBE8E70E480F4CFD
:1046A00000F022FBE3E70E480E4C00F01DFBDEE7B6
:1046B0000024E7E789480020E1DA00080ADB000867
:1046C0003E01FF8037DB000842DB000861DB0008A9
:1046D00019DB00083F01FF8022DB00084001FF805A
:1046E0002DDB00083D01FF8070B5054618461368B4
:1046F00014466FF0004293420E46049905D229B148
:1047000006F0AEFB431C05D1206070BD15B1B3426D
:1047100038BFE854236801332360F6E72DE9F04FF2
:104720008FB007469DF870309DF868B004938846B6
:1047300091460021182208A8DDE9184506F064FD1D
:10474000049B002B0CBF20233023BBF1010F0693E9
:104750004DD1002D4BDA644265EB4505DA4608ABD6
:10476000059300230393ABF10203DBB20793079B8E
:10477000012B4ED8BBF1020F04F00F030CBF354ADA
:10478000354A2409D25C44EA05742D09059B03F8D7
:10479000012B0593039B5E1C54EA050337D1BAF144
:1047A000000F2ED0049B3BB11D9B00934A462D2346
:1047B00041463846FFF798FF039E1B9B02369E42F8
:1047C00005DA1B9BB3422FDCBAF1000F0AD0049B21
:1047D0003BB91D9B00934A462D2341463846FFF7BF
:1047E00083FF013E08AC5EBB0FB0BDE8F08F54EA1A
:1047F000050302D04FF0000AB1E730238DF82030D6
:1048000001261B9B9E42EDDA4FF0000AD9E7039682
:10481000ADE7204629460A22002307F05FFC30322C
:1048200004460D46D2B2B1E71D9B00934A46069B53
:1048300041463846FFF758FF1B9B013B1B93C0E7DF
:10484000013E1D9A335D009241464A463846FFF7C5
:104850004BFFC8E7AFE700089FE700082DE9F04FDE
:104860008BB01C460023DDF85080099306460D46A8
:104870001746AAB1994213DB0CBF012301F1FF35A2
:1048800007934FF0000B17F80B306BB946B1079B3D
:1048900033B9099BAB4295BF079A079BF2547355F6
:1048A00009980BB0BDE8F08F252B40F052810BF139
:1048B000010C17F80C30203BDBB20D2B07D842F669
:1048C000090222FA03F3DB0748BF0BF1020C17F8C9
:1048D0000C302A2B4CD100230CF1010C0434184667
:1048E00017F80C202E2A07EB0C016CD14A782A2AE3
:1048F0005DD0002206924FF00A0A91F801C0ACF197
:10490000300C5FFA8CFEBEF1090F01F1010954D998
:10491000C7F1010C8C4417F80C10682956D107EB2D
:104920000C014978682960D01C218E4A515C01F045
:104930000F0AE24417F80A90B9F1780F0BD8B9F1D1
:104940006F0F56D8B9F1630F00F0C4806CD8B9F17D
:10495000580F00F09480CDF80080252309AA29463D
:104960003046FFF7C1FEB9F1250F18BFDA46BAE0AD
:10497000302B14D10CF1010C17F80C30302BF9D07E
:104980000120BC440023614611F8012B303A5FFA44
:1049900082FEBEF1090F04D9ACEB070CA0E70020A2
:1049A000EFE74FF00A0C0CFB03238C46EBE754F8BF
:1049B000042B0CF1020C0692ADE7069A0AFB02C228
:1049C0000692494699E76FF00042F4E76C2906D158
:1049D00007EB0C0149786C2909D02021A5E74C3957
:1049E000C9B22E29A1D90021A1E772219FE7822116
:1049F0009DE7A9F1700CBCF1080FACD80FF2040EC2
:104A00005EF82CF0174B000857490008574900087A
:104A1000ED4A0008574900087F4A00085749000836
:104A2000574900087F4A0008B9F1640F02D0B9F174
:104A3000690F90D1822912D1E21D22F0070214469B
:104A4000526854F8081B039301238DE80E00CDE94A
:104A5000040809AA29463046FFF760FE43E0112901
:104A600054F8042B07D0722915BF114651B2CA174A
:104A700042F3C012E7E711B242F3C032E3E7822902
:104A800011D1E11D21F007010C46496854F8082BAB
:104A90000393B9F1750FCDE9040814D10023CDE9D2
:104AA00000210293D5E7512954F8042B09D072292B
:104AB00003D0112903D00021EAE7D2B2FBE792B27A
:104AC000F9E7D117E4E7B9F1580F01D10323E6E77D
:104AD0000223E4E714F8043BCDF8008009AA294634
:104AE0003046FFF701FE0AF1010BCCE654F8049BB7
:104AF000069B4B449B4699F80030002BF3D0D945D8
:104B0000F1D0CDF8008009AA29463046FFF7ECFD28
:104B100009F10109EFE754F8049BCDF80080302338
:104B200009AA29463046FFF7DFFD7823CDF800803B
:104B300009AA29463046FFF7D7FD0023CDE9033304
:104B4000032302934FEAE973CDE90093CDF8148073
:104B50007FE7CDF8008009AA29463046FFF7C4FD5B
:104B6000DA46C0E770E7000813B500240094FFF7A9
:104B700075FE02B010BD07B5134600900A4600202E
:104B80006FF00041FFF76AFE03B05DF804FB6FF0C1
:104B9000150070476FF01500704705F0C1BB05F0B8
:104BA00069BA000007B50B46009201460022014891
:104BB00000F04CFA4401FF8003460122D3E84F0F76
:104BC000C3E8412FC0B20029F8D17047D0E85F3F59
:104BD0005B18C0E8523F002AF8D198B27047D0E87D
:104BE0005F3F5B1AC0E8523F002AF8D198B2704785
:104BF0000346D3E84F0FC3E8421FC0B2002AF8D1E2
:104C00007047000000B589B000F088F8052101A8C0
:104C1000FFF7CBFA0424039B019A1A600E4800F0B8
:104C200051FD019B049A0C481B04136000F04AFDDF
:104C3000013CF0D10424039B019A1A60074800F05C
:104C400041FD019B049A05481B04136000F03AFDE6
:104C5000013CF0D1DEE700BFF0490200801A0600F7
:104C600073B5002201460446022000F097FB0D2692
:104C700000F054F80022254614F8013B23B902B095
:104C8000BDE8704000F060B80A2B09D10D2A07D0AA
:104C900001220DF1070102208DF8076000F07EFB74
:104CA00001222946022000F079FB14F8012CE2E7EA
:104CB00000B5A3B002460B4601A88421FFF754FFBC
:104CC000832806D9074B1A681B79CDF883208DF805
:104CD0008730002802DD01A8FFF7C2FF23B05DF88E
:104CE00004FB00BF71DB00080FB407B504A951F83D
:104CF000040B0191FFF7DCFF03B05DF804EB04B097
:104D00007047EFF31080C04300F001007047EFF3ED
:104D10000580003818BF01207047000008B5FFF774
:104D2000E1F9064A1368591C04D1054905483F2298
:104D3000FFF738FF0133136008BD00BF144800209F
:104D40009EDB0008AEDB0008044A136823B1013B78
:104D500013600BB9FFF7D8B9704700BF14480020A3
:104D600008B50B48FFF728FF28B1FFF7D7FFBFF3BF
:104D70004F8F20BFFDE7FFF7CAFF08B1FFF742FFE3
:104D8000FFF7BFFF0028F9D0012000F05DFC00BF55
:104D9000884800202DE9FF41494C0E46216801F06A
:104DA000C043B3F1C04F0CBF4D428DB2C1F30743B6
:104DB0008046174643482A46FFF796FF6FF49873DC
:104DC0001D44132D0FD8DFE805F00A5255585B61DA
:104DD0005E640E0E0E0E0E0E0E0E0E0E0E67A16807
:104DE0003948FFF781FF4046FFF73AFF61683748CF
:104DF000FFF77AFF4EB13648FFF732FF3046FFF734
:104E00002FFF34483946FFF76FFFA1683248FFF79C
:104E10006BFF2368314A1A44012A02D9304A93426F
:104E20003ED1A268002A40D1E368002B45D05968E2
:104E30002C48002908BF0146E0690390A069029050
:104E40006069019020690090274D2848002A18BF0A
:104E500005462A462648FFF747FF21682548FFF701
:104E600043FF254804B0BDE8F041FFF73DBFA1680E
:104E70002248B6E7A1682248B3E7A1682148B0E715
:104E8000A1682148ADE7A1682048AAE7A1682048A9
:104E9000A7E7A1681F48A4E71F48FFF725FFA2E77F
:104EA0001E4A9342BDD00022BEE792F84C20C2F3C6
:104EB000C00282F00102D2B2B6E70A49BCE700BFE5
:104EC0001C480020F4DB000845DC0008EDDC00088D
:104ED000FEDC000806DD00080ADD0008C2FE007FD7
:104EE0004001FF80DFDB000860DB0008E9DB000831
:104EF0001EDD000877DD0008C6DD00085BDC000869
:104F00006BDC00087ADC00088DDC0008A1DC0008FE
:104F1000B5DC0008C4DC0008DADC00083D01FF80D5
:104F20007047000070B5294B8EB010EA200538BFDD
:104F30001D460C4616460021302202A806F064F9F0
:104F4000234B01952B44012B039402D9214B9D4205
:104F500032D1E36B0293636B08931F4B5B6904933D
:104F6000DA6B05925A6B1B6B06920793FFF7D6FE1E
:104F70001A4A13680133012B136009D101AD0FCD1B
:104F8000174C0FC40FCD0FC40FCD0FC42B68236077
:104F900001AC0FCC134D0FC50FCC0FC50FCC0FC5F7
:104FA00023682B60104B1B68A5F1300053B1984764
:104FB000FFF7CAFE0EB070BD0C4B9D42C9D00296E1
:104FC00001ABC9E7FFF7ACFFF2E700BF0101FF80CB
:104FD000C2FE007F4001FF801002002084480020B4
:104FE000504800201C480020184800203D01FF8048
:104FF0000FB407B50D4801217546FFF7F9FD0446CA
:1050000088B901462A460A48FFF78CFF094822461C
:105010002146FFF7BFFE049805A90191FFF748FE5E
:105020000548FFF71DFEFFF79BFE00BF89480020E3
:105030000001FF80E0DD00085FDB00080020704712
:10504000014B1878C0B270478948002080B50646E9
:105050000C460A480121F04617461D46FFF7C8FDD9
:1050600048B9424639463046FFF75CFF029A294666
:105070002046FFF78FFEFFF773FE00BF8948002030
:1050800013B5074C01212046FFF7A0FD034628B9C0
:105090000090228803490448FFF7D8FF02B010BDF2
:1050A0008A480020F5DD00082301048013B5094C6F
:1050B00001212046FFF793FD4FF6FF73984206D17A
:1050C00000230093228804490448FFF7BFFF02B081
:1050D00010BD00BF8A48002017DE000824010480AC
:1050E000034B188880B2B0FA80F04009704700BFC7
:1050F0008A48002008B5FFF711FEFFF7F1FF28B13D
:1051000001F066FFBDE80840FFF71EBE01F04EFF4C
:10511000F8E76FF01C0070476FF015007047012032
:105120007047002070477047034B186818B14FF064
:10513000FF31FDF74FBE7047E8360020024B18687C
:1051400008B1FDF75FBE7047E836002070B5154620
:105150000C468E18B44201D1284670BD14F8011BCC
:10516000014800F069FFF5E7E04A002038B511F08A
:1051700001040D4605D0084801F05AFD041E18BF71
:105180000124EB0605D5044801F06AFD08B144F09E
:105190001004204638BD00BFE04A002010B5044688
:1051A00005F0B6F8204610BD10B510460C4622B1E9
:1051B000024800F025FF2070012010BDE04A0020C9
:1051C00038B5084B0360084B1B680446154633B9D5
:1051D0000648FFF73FF90548294601F07BFD2046C8
:1051E00038BD00BFC8E700082C4B0020E04A002073
:1051F000002070470020704707B50023024903488C
:1052000000931A46FFF722FF35DE000829010180CE
:10521000074A084913681844884289BF064B106042
:105220000C224FF0FF308CBF1A601846704700BF49
:10523000BC02002000FC0120244D0020012070470A
:105240000120704708B5FEF7BDFC08BD08B5FEF7A4
:10525000C1FC08BD08B5FEF7C3FC08BD08B5FEF7E4
:10526000C7FC08BD10B50446037803F00303012B07
:1052700008D0FFF759FF237803F00302012A03D176
:10528000FFF75CFF002010BD2AB1054905484FF427
:10529000D462FFF787FC43F0020323700120F2E79A
:1052A00067DE000879DE000808B5037803F0030222
:1052B000022A05D00749084840F2A962FFF772FCAC
:1052C00023F0030343F001030370BDE80840FFF738
:1052D00035BF00BF67DE000897DE00083F2870B5C5
:1052E00004462CDC174E56F820305A1C25D10228D3
:1052F00023DCFFF77FFF0346E8B92046FFF778FF7E
:105300000346C0B9104D2B68BFF35B8FDB0711D488
:105310002846FFF7A7FF68B10C490D484FF4165215
:10532000FFF74EFF0B4A0C490948FFF787FF284655
:10533000FFF7BAFF064B46F82430184670BD00232D
:10534000FBE700BFC00200208C48002010E80008E6
:1053500090480020C80100202751000838B50446B5
:10536000FFF7BCFF0B4B002543F8245030B906F083
:105370002BF9092303604FF0FF3038BD03685B69E8
:105380009847041E04DA06F01FF964420460F2E74D
:105390002846F2E7C0020020FFF7E0BF38B50C4610
:1053A0001546FFF79BFF38B906F00EF90923036095
:1053B0004FF0FF34204638BD03682146DB682A469B
:1053C0009847041EF6DA06F0FFF864420460EFE73F
:1053D00038B50C461546FFF781FF38B906F0F4F8EA
:1053E000092303604FF0FF34204638BD036821468F
:1053F0009B682A469847041EF6DA06F0E5F86442F0
:105400000460EFE710B5FFF769FF30B906F0DCF88C
:10541000092303600024204610BD0368DB69984718
:10542000041EF8DA06F0D0F864420460F2E70000E7
:105430002DE9F74F06460F469046FFF768FC0546F4
:1054400030B100232D492E4800933246FFF7FEFD70
:10545000FFF757FC0028F4D0B8F1000F09DA06F086
:10546000B3F8162303604FF0FF34204603B0BDE8C5
:10547000F08F3046FFF7C6FF044640B1DFF884A046
:105480001AF806B02C464FF00D09A84512DCA045CD
:10549000EBDDA8EB040239193046FFF77FFF431C10
:1054A000E1D00444002CC1BF3F19164B17F8012C62
:1054B0009A55DAE77B5D0A2B1BD1BBF10D0F18D093
:1054C000AC420BDA39192A1B3046FFF767FF411C43
:1054D000C9D00444A542C8DC0AF806B001220A4932
:1054E0003046FFF75BFF421CBDD00028BDD00AF854
:1054F000069017F805B00135C7E700BFCEDE0008FB
:105500002F0101809448002008DF0008FFF77ABFD0
:105510007FB504460D461646FFF7F9FB30B1002370
:105520002049214800932246FFF790FDFFF7E9FB51
:105530000028F4D0002E07DA06F046F816230360A0
:105540004FF0FF3004B070BD2046FFF75BFF00B3A3
:10555000164E01220DF10F012046FFF739FF431CC3
:10556000F0D00028EED09DF80F300D2B08D1325D21
:105570000A2A0AD01A460A2332552B700120E1E785
:105580000A2B04D1325D0D2AF3E73355E1E71A46C1
:10559000F2E732462946204604B0BDE87040FFF7E6
:1055A00017BF00BF0ADF00082F010180D448002088
:1055B00038B50C461546FFF791FE38B906F004F8E9
:1055C000092303604FF0FF34204638BD03682146AD
:1055D0001B692A469847041EF6DA05F0F5FF644277
:1055E0000460EFE7FFF7E4BF10B5FFF777FE30B9CF
:1055F00005F0EAFF092303604FF0FF3010BD036898
:105600009B699847041E04DA05F0DEFF64420460DB
:10561000F2E70020F2E700000A4D08B52B680446C7
:10562000986805F015FB2B68D86805F011FB012080
:10563000FFF7DAFF0220FFF7D7FF0CB1FFF7E2FA1E
:10564000FEE700BFF407002008B5FFF7E5FF38B517
:105650000D46FFF743FE044630B905F0B5FF0923B8
:1056600003604FF0FF3038BD0368DB6998470028BE
:105670000CBF4FF400434FF400536B602368204687
:105680009B6A984728610020EDE7FFF7E0BF000024
:1056900013B5044604F034FE034628B900900349CC
:1056A00003482246FFF7D2FC02B010BD46DF0008D7
:1056B0001F01018004F024BE04F02ABE04F028BEBD
:1056C00004F026BE034A516A536A5B1A8342FBD335
:1056D000704700BF000C00401FB50023CDE9001348
:1056E000031D04460293684610230393FCF774FCE1
:1056F000206020B9034904483522FFF753FA04B06B
:1057000010BD00BF87DF000896DF000810B5044613
:10571000FFF7E2FF204610BD0068FCF775BC10B52E
:1057200004460068FCF7CEFC204610BD10B49DF87E
:1057300004400CB942F0020200685DF8044BFCF72B
:1057400093BC07B5009313460022FFF7EFFF03B0A9
:105750005DF804FBFFF7F5BF38B5FFF7DFFAFCF79C
:10576000FDFD08490B6808608342074B82BF1A6839
:1057700001321A601D680446FFF7E6FA2046294602
:1057800038BD00BF1C490020204900201FB5002360
:1057900003620D4B002918BF0B460093031D0293B3
:1057A0001C230446039368460B230193FDF7FAFA82
:1057B000206038B9FFF744FC20B9044904483D2271
:1057C000FFF7F0F904B010BD9ADF0008D8DF000839
:1057D000E2DF000810B500210446FFF7D7FF20469E
:1057E00010BD000037B504464FF0FF310068FDF7EB
:1057F000F1FA054648B1FFF723FC034640B9009093
:10580000044905482A46FFF721FC236A0133236235
:1058100003B030BD06E0000815010280036A013BB9
:1058200013B503620068FDF7EDFA044648B1FFF7CF
:1058300007FC034628B90090034904482246FFF7B5
:1058400005FC02B010BD00BF18E00008170102807F
:1058500010B504460068FDF7EDFA204610BD0000C3
:105860001FB504460023CDE90033231D10460293E3
:105870006A4610230393FDF7D9FB206020B9034942
:1058800003483722FFF78EF904B010BD50E000083E
:105890005EE0000810B54FF6FF720446FFF7E0FF28
:1058A000204610BD0068FDF7D9BB10B5044600685E
:1058B000FDF702FC204610BD036910B504462BB964
:1058C0000B490C484FF4FD72FFF76CF91B6804306C
:1058D000984704F15400FFF785FF0023636101231B
:1058E00084F83D3004F14000BDE81040FFF7DABF16
:1058F0009FE00008AAE000082DE9F047DDE908571D
:1059000099466B07044618BF25F00706884692465D
:105910004FF000014FF0440200F178000CBF2E461A
:10592000083605F071FCB5FA85F300215B0984F8AF
:105930003C30616184F83D10202204F11C0005F028
:1059400063FC4D44074BC4F830A0AD1B25F00705A0
:10595000002F08BF1F46E562A761A662C4F8348025
:10596000BDE8F087B6E0000813B5049CCDE900342B
:1059700013460A460021FFF7BFFF02B010BD00002A
:10598000F8B5044600F1540528460E46FFF72AFFF5
:10599000636913B994F83D302BB12846FFF73EFFF9
:1059A0006FF00300F8BDA36A93B328490023E26AAD
:1059B000B3EB920F40D34423271D6362B74204F137
:1059C0007803236209D03846FBF7E4FCF3682361CF
:1059D0001BB15B683146384698471D4804F11802F0
:1059E0002146FDF7A5FF606158BB94F83C302BB110
:1059F000A06A08B1FFF764FE0023A3622846FFF700
:105A00000DFF04F14000FFF74DFF6FF00200C9E702
:105A1000E06A104B1049984294BF20F003004FF009
:105A2000FF30FFF747FEA0620028BED12846FFF7EF
:105A3000F5FE6FF00400B5E7A26A42F823100133C7
:105A4000B5E72846FFF7EAFE0020ABE7A52E5AE2AD
:105A5000B9580008FBFFFF7FB0EC000870B500F1FB
:105A6000540504462846FFF7BDFE04F14000666970
:105A7000FFF718FF0023636194F83D302BB1002439
:105A80002846FFF7CBFE204670BD012384F83D3049
:105A9000002EF4D03046FDF777FF0446F0E7000013
:105AA00010B50D4B03600446FFF7D8FF94F83C3067
:105AB0002BB1A06A08B1FFF703FE0023A36204F133
:105AC0005400FFF7C5FE04F14000FFF7EEFE201D75
:105AD000FBF760FC204610BD30E8000810B5044616
